:100000000C9462000C948A000C948A000C948A0070
:100010000C948A000C948A000C948A000C948A0038
:100020000C948A000C948A000C948A000C9481032E
:100030000C948A000C948A000C948A000C948A0018
:100040000C9437030C948A000C9405030C94DF0283
:100050000C948A000C948A000C948A000C948A00F8
:100060000C948A000C948A000000000024002700F1
:100070002A0000000000250028002B0000000008D6
:10008000000201000003040700000000000000005F
:1000900000000000230026002900040404040404D6
:1000A0000404020202020202030303030303010227
:1000B00004081020408001020408102001020408F6
:1000C0001020820411241FBECFEFD8E0DEBFCDBFC9
:1000D00011E0A0E0B1E0E2EBFDE002C005900D927E
:1000E000A234B107D9F722E0A2E4B1E001C01D9229
:1000F000A131B207E1F710E0C2E6D0E004C02197D9
:10010000FE010E94D106C136D107C9F70E94DF0463
:100110000C94D7060C9400008F929F92AF92BF92DE
:10012000FF920F931F93CF93DF93F0900E022BE07B
:100130002F1508F44CC02091100208E512E0021BB4
:10014000110927FD1395000F111F000F111F20919A
:100150000F02C8E8D0E0C21BD10927FDD395CC0F10
:10016000DD1FCC0FDD1F4E010D2E000CAA08BB08B1
:100170009801012E000C440B550B281939094A0926
:100180005B09DC010E948C0624EB30E040E050E08B
:100190000E946206820E931EA41EB51E8C169D063A
:1001A0002CF0E801801691060CF4E4012297CC0FA4
:1001B000DD1F2FB7F8948F2D90E0FC01EE0FFF1F8D
:1001C000E80FF91FE751FE4FD283C1832FBFDF91A4
:1001D000CF911F910F91FF90BF90AF909F908F9004
:1001E0000895AF92BF92CF92DF92EF92FF920F935A
:1001F0001F93CF93DF936C017B018B01040F151FBD
:10020000EB015E01AE18BF08C017D10759F0699124
:10021000D601ED91FC910190F081E02DC601099588
:10022000892B79F7C501DF91CF911F910F91FF9035
:10023000EF90DF90CF90BF90AF900895FC01538D69
:10024000448D252F30E0842F90E0821B930B5417B0
:1002500010F0CF96089501970895FC01918D828D3D
:10026000981761F0A28DAE0FBF2FB11D5D968C91D6
:10027000928D9F5F9F73928F90E008958FEF9FEF15
:100280000895FC01918D828D981731F0828DE80FD1
:10029000F11D858D90E008958FEF9FEF0895FC018B
:1002A000918D228D892F90E0805C9F4F821B910958
:1002B0008F73992708958CE491E00E944F0121E00B
:1002C000892B09F420E0822F089580E090E0892BAB
:1002D00029F00E945B0181110C9400000895FC013B
:1002E000A48DA80FB92FB11DA35ABF4F2C91848D97
:1002F00090E001968F739927848FA689B7892C93F4
:10030000A089B1898C91837080648C93938D848D46
:10031000981306C00288F389E02D80818F7D808349
:100320000895EF92FF920F931F93CF93DF93EC0109
:1003300081E0888F9B8D8C8D98131AC0E889F9898C
:10034000808185FF15C09FB7F894EE89FF8960838F
:10035000E889F98980818370806480839FBF81E010
:1003600090E0DF91CF911F910F91FF90EF90089552
:10037000F62E0B8D10E00F5F1F4F0F731127E02E2D
:100380008C8D8E110CC00FB607FCFACFE889F98965
:10039000808185FFF5CFCE010E946F01F1CFEB8DFB
:1003A000EC0FFD2FF11DE35AFF4FF0829FB7F89439
:1003B0000B8FEA89FB8980818062CFCFCF93DF9357
:1003C000EC01888D8823B9F0AA89BB89E889F9896D
:1003D0008C9185FD03C0808186FD0DC00FB607FCA2
:1003E000F7CF8C9185FFF2CF808185FFEDCFCE01D5
:1003F0000E946F01E9CFDF91CF91089590E0FC0159
:10040000E458FF4F2491FC01E255FF4F3491FC0169
:10041000E656FF4FE491EE23C9F0222339F0233052
:1004200001F1A8F4213019F1223029F1F0E0EE0FAA
:10043000FF1FEE58FF4FA591B4918FB7F894EC9140
:10044000611126C030953E233C938FBF089527301D
:10045000A9F02830C9F0243049F7809180008F7DC1
:1004600003C0809180008F7780938000DFCF84B5B8
:100470008F7784BDDBCF84B58F7DFBCF8091B000BB
:100480008F778093B000D2CF8091B0008F7DF9CF6D
:100490003E2BDACFCF93DF9390E0FC01E255FF4F84
:1004A000249186569F4FFC0184918823D1F090E0DF
:1004B000880F991FFC01E859FF4FA591B491FC01E9
:1004C000EE58FF4FC591D49161110EC09FB7F894BB
:1004D0008C91E22FE0958E238C932881E223E88390
:1004E0009FBFDF91CF9108958FB7F894EC91E22BE5
:1004F000EC938FBFF6CF3FB7F8948091480190916D
:100500004901A0914A01B0914B0126B5A89B05C0B5
:100510002F3F19F00196A11DB11D3FBFBA2FA92F82
:10052000982F8827BC01CD01620F711D811D911D7F
:1005300042E0660F771F881F991F4A95D1F70895EB
:100540008F929F92AF92BF92CF92DF92EF92FF92E3
:100550004B015C010E947B026B017C010E947B02CB
:100560006C197D098E099F09683E734081059105CC
:10057000A8F321E0821A9108A108B10888EEC80EFC
:1005800083E0D81EE11CF11C81149104A104B10484
:1005900029F7FF90EF90DF90CF90BF90AF909F90A2
:1005A0008F900895FC0101900020E9F73197AF0189
:1005B000481B590BBC018CE491E00C94F1001F9294
:1005C0000F920FB60F9211242F933F934F935F9387
:1005D0006F937F938F939F93AF93BF93EF93FF930B
:1005E0008CE491E00E946F01FF91EF91BF91AF9178
:1005F0009F918F917F916F915F914F913F912F913B
:100600000F900FBE0F901F9018951F920F920FB66C
:100610000F9211242F938F939F93EF93FF93E09169
:100620005C01F0915D018081E0916201F0916301D4
:1006300082FD1BC09081809165018F5F8F73209137
:100640006601821741F0E0916501F0E0E45BFE4F46
:10065000958F80936501FF91EF919F918F912F91DD
:100660000F900FBE0F901F9018958081F4CF1F92AE
:100670000F920FB60F9211242F933F938F939F9356
:10068000AF93BF938091440190914501A0914601A1
:10069000B09147013091430123E0230F2D3758F5E6
:1006A0000196A11DB11D20934301809344019093B5
:1006B0004501A0934601B093470180914801909174
:1006C0004901A0914A01B0914B010196A11DB11DB4
:1006D0008093480190934901A0934A01B0934B0144
:1006E000BF91AF919F918F913F912F910F900FBE2E
:1006F0000F901F90189526E8230F0296A11DB11D9B
:10070000D2CF1F920F920FB60F9211242F933F93C7
:100710004F935F936F937F938F939F93AF93BF9309
:10072000CF93DF93EF93FF9380914201C0910D022D
:10073000D0E087FF24C01092850010928400809141
:1007400042018F5F8093420180914201082E000C8C
:10075000990B8C179D0724F4809142018C30C4F1D1
:100760008091840090918500049680349C4908F41F
:100770007AC08091840090918500049676C0809123
:100780004201082E000C990B8C179D07C4F6E091CE
:1007900042018E2FEE0F990BFC01EE0FFF1FE80FA9
:1007A000F91FE751FE4F808186FFC9CFE0914201DA
:1007B0008E2FEE0F990BFC01EE0FFF1FE80FF91FB4
:1007C000E751FE4F808160E08F730E94FE01B7CF3A
:1007D0002091840030918500E09142018E2FEE0F30
:1007E000990BFC01EE0FFF1FE80FF91FE751FE4FB9
:1007F00081819281820F931F90938900809388005A
:10080000E09142018E2FEE0F990BFC01EE0FFF1FBE
:10081000E80FF91FE751FE4F808186FF11C0E0917C
:1008200042018E2FEE0F990BFC01EE0FFF1FE80F18
:10083000F91FE751FE4F808161E08F730E94FE0136
:10084000FF91EF91DF91CF91BF91AF919F918F91E8
:100850007F916F915F914F913F912F910F900FBEBC
:100860000F901F90189580E49CE9909389008093E5
:1008700088008FEF80934201E3CFCF92DF92EF9217
:10088000FF920F931F93E82FF92F05C00150110914
:100890002109310961F1908196239417B9F305C0BC
:1008A000015011092109310911F190819623941306
:1008B000F7CFC12CD12CE12CF12C0AC08FEFC81A34
:1008C000D80AE80AF80A0C151D052E053F0579F02F
:1008D00080818623841791F36C2D7D2D8E2D9F2D85
:1008E0001F910F91FF90EF90DF90CF90089560E0FF
:1008F00070E080E090E01F910F91FF90EF90DF900B
:10090000CF90089510924F0110924E0188EE93E01F
:10091000A0E0B0E08093500190935101A093520168
:10092000B093530184E091E090934D0180934C018A
:1009300085EC90E0909359018093580184EC90E00D
:1009400090935B0180935A0180EC90E090935D015D
:1009500080935C0181EC90E090935F0180935E0155
:1009600082EC90E0909361018093600186EC90E0CE
:100970009093630180936201109265011092660169
:10098000109267011092680180910D028C3098F4EA
:1009900091E0980F90930D0280930E0290E0FC017D
:1009A000EE0FFF1FE80FF91FE751FE4F88EB9BE0AA
:1009B0009283818308958FEF80930E020895CF93E1
:1009C000DF93CDB7DEB7A1970FB6F894DEBF0FBEA9
:1009D000CDBF789484B5826084BD84B5816084BDC8
:1009E00085B5826085BD85B5816085BD80916E00CD
:1009F000816080936E0010928100809181008260FE
:100A0000809381008091810081608093810080913A
:100A100080008160809380008091B1008460809329
:100A2000B1008091B00081608093B00080917A0025
:100A3000846080937A0080917A00826080937A004B
:100A400080917A00816080937A0080917A0080683A
:100A500080937A001092C100E0915C01F0915D01F9
:100A600082E08083E0915801F09159011082E09179
:100A70005A01F0915B018FEC808310926401E09148
:100A80006001F091610186E08083E0915E01F09168
:100A90005F01808180618083E0915E01F0915F0160
:100AA000808188608083E0915E01F0915F018081A8
:100AB00080688083E0915E01F0915F0180818F7D8D
:100AC000808380910E028C3008F051C061E083E099
:100AD0000E944A0280910E02282F30E0F901EE0FA9
:100AE000FF1FE20FF31FE751FE4F9081907C936050
:100AF000908310920F02109210022CE0622F0E943D
:100B0000C506829FB001112430E020E0AB01420F06
:100B1000531FFA01EE0FFF1FE40FF51FE751FE4FC1
:100B2000908196FD16C02F5F3F4F2C30310571F735
:100B300081110FC01092800082E08093810010929A
:100B4000850010928400B19A80916F00826080933A
:100B50006F00E0910E028E2F90E0FC01EE0FFF1F60
:100B6000E80FF91FE751FE4F80818064808361E0C8
:100B700087E00E944A0260E088E00E944A0282E127
:100B800091E00E94D20281E291E00E94D20260EDE7
:100B900077E080E090E00E94A0029AE3892E912CF9
:100BA000A12CB12C2AE0422E512C612C712C30E06A
:100BB000232E30E0332E60E087E00E94FE0183E0C8
:100BC00090E00197F1F761E087E00E94FE0183E287
:100BD00090E00197F1F760E087E00E94FE01E6EB0C
:100BE000F0E06491E2EAF0E08491E82FF0E0EE0FAB
:100BF000FF1FE057FF4F8591949100E412E42FE02E
:100C000030E0462F0E943D04611571058105910574
:100C100029F06F5F7F4F8F4F9F4F9F70A501940109
:100C20000E94620669017A0190E080E00E948C00D7
:100C300081E391E00E94D202A701960119A28E01E0
:100C40000F5D1F4FCA01B901A30192010E949406D2
:100C5000605DF80162938F01211531054105510551
:100C600089F7309719F0CF010E94D2028BE391E00F
:100C70000E94D20264E670E080E090E00E94A00250
:100C800090E080E0FAE0CF16D104E104F10414F41E
:100C90008AE590E00E948C008EE391E00E94D202EF
:100CA00064E670E080E090E00E94A002211431042C
:100CB00009F481CF0E945B01882309F47CCF0E9454
:100CC000000079CF052E97FB1EF400940E94790650
:100CD00057FD07D00E94940607FC03D04EF40C94F5
:100CE000790650954095309521953F4F4F4F5F4F76
:100CF000089590958095709561957F4F8F4F9F4F88
:100D000008950E94B606A59F900DB49F900DA49FD4
:100D1000800D911D11240895B7FF0C9481060E9447
:100D20008106821B930B0895A1E21A2EAA1BBB1BFE
:100D3000FD010DC0AA1FBB1FEE1FFF1FA217B307A7
:100D4000E407F50720F0A21BB30BE40BF50B661FBD
:100D5000771F881F991F1A9469F760957095809581
:100D600090959B01AC01BD01CF010895A29FB001F8
:100D7000B39FC001A39F700D811D1124911DB29FCF
:100D8000700D811D1124911D0895991B79E004C0F7
:100D9000991F961708F0961B881F7A95C9F78095BA
:100DA0000895EE0FFF1F0590F491E02D0994F8943B
:020DB000FFCF73
:100DB200000000009101F1001E01DE014F012D0132
:100DC2004101202044697374616E636520202020F4
:100DD2000020204D6561737572656D656E7420200B
:100DE2000044697374616E63653A00636D000D0AB5
:020DF2000000FF
:00000001FF
